{
  "contractName": "TourismManagement",
  "abi": [
    {
      "constant": true,
      "inputs": [],
      "name": "name",
      "outputs": [
        {
          "name": "",
          "type": "string"
        }
      ],
      "payable": false,
      "stateMutability": "view",
      "type": "function"
    },
    {
      "constant": false,
      "inputs": [
        {
          "name": "spender",
          "type": "address"
        },
        {
          "name": "tokens",
          "type": "uint256"
        }
      ],
      "name": "approve",
      "outputs": [
        {
          "name": "success",
          "type": "bool"
        }
      ],
      "payable": false,
      "stateMutability": "nonpayable",
      "type": "function"
    },
    {
      "constant": true,
      "inputs": [],
      "name": "totalSupply",
      "outputs": [
        {
          "name": "",
          "type": "uint256"
        }
      ],
      "payable": false,
      "stateMutability": "view",
      "type": "function"
    },
    {
      "constant": false,
      "inputs": [
        {
          "name": "from",
          "type": "address"
        },
        {
          "name": "to",
          "type": "address"
        },
        {
          "name": "tokens",
          "type": "uint256"
        }
      ],
      "name": "transferFrom",
      "outputs": [
        {
          "name": "success",
          "type": "bool"
        }
      ],
      "payable": false,
      "stateMutability": "nonpayable",
      "type": "function"
    },
    {
      "constant": true,
      "inputs": [],
      "name": "decimals",
      "outputs": [
        {
          "name": "",
          "type": "uint8"
        }
      ],
      "payable": false,
      "stateMutability": "view",
      "type": "function"
    },
    {
      "constant": true,
      "inputs": [],
      "name": "tokenSold",
      "outputs": [
        {
          "name": "",
          "type": "uint256"
        }
      ],
      "payable": false,
      "stateMutability": "view",
      "type": "function"
    },
    {
      "constant": true,
      "inputs": [],
      "name": "tokenContract",
      "outputs": [
        {
          "name": "",
          "type": "address"
        }
      ],
      "payable": false,
      "stateMutability": "view",
      "type": "function"
    },
    {
      "constant": true,
      "inputs": [],
      "name": "touristCount",
      "outputs": [
        {
          "name": "",
          "type": "uint256"
        }
      ],
      "payable": false,
      "stateMutability": "view",
      "type": "function"
    },
    {
      "constant": true,
      "inputs": [
        {
          "name": "tokenOwner",
          "type": "address"
        }
      ],
      "name": "balanceOf",
      "outputs": [
        {
          "name": "balance",
          "type": "uint256"
        }
      ],
      "payable": false,
      "stateMutability": "view",
      "type": "function"
    },
    {
      "constant": true,
      "inputs": [],
      "name": "touristAdd",
      "outputs": [
        {
          "name": "",
          "type": "address"
        }
      ],
      "payable": false,
      "stateMutability": "view",
      "type": "function"
    },
    {
      "constant": true,
      "inputs": [],
      "name": "tokenPrice",
      "outputs": [
        {
          "name": "",
          "type": "uint256"
        }
      ],
      "payable": false,
      "stateMutability": "view",
      "type": "function"
    },
    {
      "constant": true,
      "inputs": [],
      "name": "owner",
      "outputs": [
        {
          "name": "",
          "type": "address"
        }
      ],
      "payable": false,
      "stateMutability": "view",
      "type": "function"
    },
    {
      "constant": true,
      "inputs": [],
      "name": "symbol",
      "outputs": [
        {
          "name": "",
          "type": "string"
        }
      ],
      "payable": false,
      "stateMutability": "view",
      "type": "function"
    },
    {
      "constant": true,
      "inputs": [],
      "name": "adminBalance",
      "outputs": [
        {
          "name": "",
          "type": "uint256"
        }
      ],
      "payable": false,
      "stateMutability": "view",
      "type": "function"
    },
    {
      "constant": false,
      "inputs": [
        {
          "name": "to",
          "type": "address"
        },
        {
          "name": "tokens",
          "type": "uint256"
        }
      ],
      "name": "transfer",
      "outputs": [
        {
          "name": "success",
          "type": "bool"
        }
      ],
      "payable": false,
      "stateMutability": "nonpayable",
      "type": "function"
    },
    {
      "constant": true,
      "inputs": [
        {
          "name": "tokenOwner",
          "type": "address"
        },
        {
          "name": "spender",
          "type": "address"
        }
      ],
      "name": "allowance",
      "outputs": [
        {
          "name": "remaining",
          "type": "uint256"
        }
      ],
      "payable": false,
      "stateMutability": "view",
      "type": "function"
    },
    {
      "inputs": [],
      "payable": false,
      "stateMutability": "nonpayable",
      "type": "constructor"
    },
    {
      "anonymous": false,
      "inputs": [
        {
          "indexed": false,
          "name": "_buyer",
          "type": "address"
        },
        {
          "indexed": false,
          "name": "_amount",
          "type": "uint256"
        }
      ],
      "name": "Sell",
      "type": "event"
    },
    {
      "anonymous": false,
      "inputs": [
        {
          "indexed": true,
          "name": "from",
          "type": "address"
        },
        {
          "indexed": true,
          "name": "to",
          "type": "address"
        },
        {
          "indexed": false,
          "name": "tokens",
          "type": "uint256"
        }
      ],
      "name": "Transfer",
      "type": "event"
    },
    {
      "anonymous": false,
      "inputs": [
        {
          "indexed": true,
          "name": "tokenOwner",
          "type": "address"
        },
        {
          "indexed": true,
          "name": "spender",
          "type": "address"
        },
        {
          "indexed": false,
          "name": "tokens",
          "type": "uint256"
        }
      ],
      "name": "Approval",
      "type": "event"
    },
    {
      "constant": false,
      "inputs": [
        {
          "name": "_numberOfTokens",
          "type": "uint256"
        }
      ],
      "name": "buyTokens",
      "outputs": [],
      "payable": false,
      "stateMutability": "nonpayable",
      "type": "function"
    },
    {
      "constant": false,
      "inputs": [
        {
          "name": "_regNo",
          "type": "uint256"
        },
        {
          "name": "_name",
          "type": "string"
        },
        {
          "name": "_age",
          "type": "uint256"
        },
        {
          "name": "_indian",
          "type": "bool"
        },
        {
          "name": "_nationality",
          "type": "string"
        },
        {
          "name": "_myGender",
          "type": "uint8"
        },
        {
          "name": "_blood",
          "type": "string"
        },
        {
          "name": "_passNo",
          "type": "uint256"
        },
        {
          "name": "_TokenBuy",
          "type": "uint256"
        },
        {
          "name": "_touristaddress",
          "type": "address"
        }
      ],
      "name": "addTourist",
      "outputs": [],
      "payable": true,
      "stateMutability": "payable",
      "type": "function"
    },
    {
      "constant": true,
      "inputs": [
        {
          "name": "_regNo",
          "type": "uint256"
        }
      ],
      "name": "getTourist",
      "outputs": [
        {
          "name": "_name",
          "type": "string"
        },
        {
          "name": "_age",
          "type": "uint256"
        },
        {
          "name": "_indian",
          "type": "bool"
        },
        {
          "name": "_nationality",
          "type": "string"
        },
        {
          "name": "_myGender",
          "type": "uint8"
        },
        {
          "name": "_blood",
          "type": "string"
        },
        {
          "name": "_passNo",
          "type": "uint256"
        },
        {
          "name": "_TokenBuy",
          "type": "uint256"
        },
        {
          "name": "_touristaddress",
          "type": "address"
        },
        {
          "name": "_productRegNum",
          "type": "uint256"
        },
        {
          "name": "_productBuyCount",
          "type": "uint256"
        }
      ],
      "payable": false,
      "stateMutability": "view",
      "type": "function"
    },
    {
      "constant": false,
      "inputs": [
        {
          "name": "_regNo",
          "type": "uint256"
        },
        {
          "name": "_TokenBuy",
          "type": "uint256"
        }
      ],
      "name": "addTokens",
      "outputs": [
        {
          "name": "",
          "type": "bool"
        }
      ],
      "payable": true,
      "stateMutability": "payable",
      "type": "function"
    }
  ],
  "bytecode": "0x60806040523480156200001157600080fd5b506040805190810160405280600381526020017f54544e0000000000000000000000000000000000000000000000000000000000815250600090805190602001906200005f9291906200026f565b506040805190810160405280600981526020017f546f7572546f6b656e000000000000000000000000000000000000000000000081525060019080519060200190620000ad9291906200026f565b506005600260006101000a81548160ff021916908360ff160217905550600260009054906101000a900460ff1660ff16600a0a633b9aca000260038190555033600460006101000a81548173ffffffffffffffffffffffffffffffffffffffff021916908373ffffffffffffffffffffffffffffffffffffffff16021790555060035460056000600460009054906101000a900473ffffffffffffffffffffffffffffffffffffffff1673ffffffffffffffffffffffffffffffffffffffff1673ffffffffffffffffffffffffffffffffffffffff16815260200190815260200160002081905550600460009054906101000a900473ffffffffffffffffffffffffffffffffffffffff1673ffffffffffffffffffffffffffffffffffffffff16600073ffffffffffffffffffffffffffffffffffffffff167fddf252ad1be2c89b69c2b068fc378daa952ba7f163c4a11628f55a4df523b3ef6003546040518082815260200191505060405180910390a333600960006101000a81548173ffffffffffffffffffffffffffffffffffffffff021916908373ffffffffffffffffffffffffffffffffffffffff160217905550612710600b819055506200031e565b828054600181600116156101000203166002900490600052602060002090601f016020900481019282601f10620002b257805160ff1916838001178555620002e3565b82800160010185558215620002e3579182015b82811115620002e2578251825591602001919060010190620002c5565b5b509050620002f29190620002f6565b5090565b6200031b91905b8082111562000317576000816000905550600101620002fd565b5090565b90565b611f7e806200032e6000396000f3fe608060405260043610610112576000357c0100000000000000000000000000000000000000000000000000000000900463ffffffff168063010260991461011757806306fdde0314610167578063095ea7b3146101f757806318160ddd1461026a57806323b872dd14610295578063313ce567146103285780633610724e14610359578063519ee19e1461039457806355a373d6146103bf578063680cc8bc1461041657806370a08231146104415780637d7aaa8f146104a65780637ff9b596146104fd57806381f4b375146105285780638da5cb5b1461072a57806395d89b41146107815780639858befb14610811578063a9059cbb1461083c578063dd62ed3e146108af578063f4a31fbd14610934575b600080fd5b61014d6004803603604081101561012d57600080fd5b810190808035906020019092919080359060200190929190505050610b7f565b604051808215151515815260200191505060405180910390f35b34801561017357600080fd5b5061017c610cd8565b6040518080602001828103825283818151815260200191508051906020019080838360005b838110156101bc5780820151818401526020810190506101a1565b50505050905090810190601f1680156101e95780820380516001836020036101000a031916815260200191505b509250505060405180910390f35b34801561020357600080fd5b506102506004803603604081101561021a57600080fd5b81019080803573ffffffffffffffffffffffffffffffffffffffff16906020019092919080359060200190929190505050610d76565b604051808215151515815260200191505060405180910390f35b34801561027657600080fd5b5061027f610e68565b6040518082815260200191505060405180910390f35b3480156102a157600080fd5b5061030e600480360360608110156102b857600080fd5b81019080803573ffffffffffffffffffffffffffffffffffffffff169060200190929190803573ffffffffffffffffffffffffffffffffffffffff16906020019092919080359060200190929190505050610eb3565b604051808215151515815260200191505060405180910390f35b34801561033457600080fd5b5061033d61120a565b604051808260ff1660ff16815260200191505060405180910390f35b34801561036557600080fd5b506103926004803603602081101561037c57600080fd5b810190808035906020019092919050505061121d565b005b3480156103a057600080fd5b506103a9611350565b6040518082815260200191505060405180910390f35b3480156103cb57600080fd5b506103d4611356565b604051808273ffffffffffffffffffffffffffffffffffffffff1673ffffffffffffffffffffffffffffffffffffffff16815260200191505060405180910390f35b34801561042257600080fd5b5061042b61137c565b6040518082815260200191505060405180910390f35b34801561044d57600080fd5b506104906004803603602081101561046457600080fd5b81019080803573ffffffffffffffffffffffffffffffffffffffff169060200190929190505050611382565b6040518082815260200191505060405180910390f35b3480156104b257600080fd5b506104bb6113cb565b604051808273ffffffffffffffffffffffffffffffffffffffff1673ffffffffffffffffffffffffffffffffffffffff16815260200191505060405180910390f35b34801561050957600080fd5b506105126113f1565b6040518082815260200191505060405180910390f35b34801561053457600080fd5b506105616004803603602081101561054b57600080fd5b81019080803590602001909291905050506113f7565b60405180806020018c81526020018b151515158152602001806020018a600281111561058957fe5b60ff168152602001806020018981526020018881526020018773ffffffffffffffffffffffffffffffffffffffff1673ffffffffffffffffffffffffffffffffffffffff16815260200186815260200185815260200184810384528f818151815260200191508051906020019080838360005b838110156106175780820151818401526020810190506105fc565b50505050905090810190601f1680156106445780820380516001836020036101000a031916815260200191505b5084810383528c818151815260200191508051906020019080838360005b8381101561067d578082015181840152602081019050610662565b50505050905090810190601f1680156106aa5780820380516001836020036101000a031916815260200191505b5084810382528a818151815260200191508051906020019080838360005b838110156106e35780820151818401526020810190506106c8565b50505050905090810190601f1680156107105780820380516001836020036101000a031916815260200191505b509e50505050505050505050505050505060405180910390f35b34801561073657600080fd5b5061073f61172e565b604051808273ffffffffffffffffffffffffffffffffffffffff1673ffffffffffffffffffffffffffffffffffffffff16815260200191505060405180910390f35b34801561078d57600080fd5b50610796611754565b6040518080602001828103825283818151815260200191508051906020019080838360005b838110156107d65780820151818401526020810190506107bb565b50505050905090810190601f1680156108035780820380516001836020036101000a031916815260200191505b509250505060405180910390f35b34801561081d57600080fd5b506108266117f2565b6040518082815260200191505060405180910390f35b34801561084857600080fd5b506108956004803603604081101561085f57600080fd5b81019080803573ffffffffffffffffffffffffffffffffffffffff169060200190929190803590602001909291905050506117f8565b604051808215151515815260200191505060405180910390f35b3480156108bb57600080fd5b5061091e600480360360408110156108d257600080fd5b81019080803573ffffffffffffffffffffffffffffffffffffffff169060200190929190803573ffffffffffffffffffffffffffffffffffffffff169060200190929190505050611c4c565b6040518082815260200191505060405180910390f35b610b7d600480360361014081101561094b57600080fd5b81019080803590602001909291908035906020019064010000000081111561097257600080fd5b82018360208201111561098457600080fd5b803590602001918460018302840111640100000000831117156109a657600080fd5b91908080601f016020809104026020016040519081016040528093929190818152602001838380828437600081840152601f19601f8201169050808301925050505050505091929192908035906020019092919080351515906020019092919080359060200190640100000000811115610a1f57600080fd5b820183602082011115610a3157600080fd5b80359060200191846001830284011164010000000083111715610a5357600080fd5b91908080601f016020809104026020016040519081016040528093929190818152602001838380828437600081840152601f19601f820116905080830192505050505050509192919290803560ff16906020019092919080359060200190640100000000811115610ac357600080fd5b820183602082011115610ad557600080fd5b80359060200191846001830284011164010000000083111715610af757600080fd5b91908080601f016020809104026020016040519081016040528093929190818152602001838380828437600081840152601f19601f8201169050808301925050505050505091929192908035906020019092919080359060200190929190803573ffffffffffffffffffffffffffffffffffffffff169060200190929190505050611cd3565b005b6000806008600085815260200190815260200160002060080160009054906101000a900473ffffffffffffffffffffffffffffffffffffffff1690508073ffffffffffffffffffffffffffffffffffffffff163373ffffffffffffffffffffffffffffffffffffffff16141515610c84576040517f08c379a00000000000000000000000000000000000000000000000000000000081526004018080602001828103825260238152602001807f4f6e6c7920746f75726973742063616e2063616c6c20746869732066756e637481526020017f696f6e000000000000000000000000000000000000000000000000000000000081525060400191505060405180910390fd5b610c9a61271034811515610c9457fe5b0461121d565b826008600086815260200190815260200160002060070154016008600086815260200190815260200160002060070181905550600191505092915050565b60018054600181600116156101000203166002900480601f016020809104026020016040519081016040528092919081815260200182805460018160011615610100020316600290048015610d6e5780601f10610d4357610100808354040283529160200191610d6e565b820191906000526020600020905b815481529060010190602001808311610d5157829003601f168201915b505050505081565b600081600660003373ffffffffffffffffffffffffffffffffffffffff1673ffffffffffffffffffffffffffffffffffffffff16815260200190815260200160002060008573ffffffffffffffffffffffffffffffffffffffff1673ffffffffffffffffffffffffffffffffffffffff168152602001908152602001600020819055508273ffffffffffffffffffffffffffffffffffffffff163373ffffffffffffffffffffffffffffffffffffffff167f8c5be1e5ebec7d5bd14f71427d1e84f3dd0314c0f7b2291e5b200ac8c7c3b925846040518082815260200191505060405180910390a36001905092915050565b6000600560008073ffffffffffffffffffffffffffffffffffffffff1673ffffffffffffffffffffffffffffffffffffffff1681526020019081526020016000205460035403905090565b6000600560008573ffffffffffffffffffffffffffffffffffffffff1673ffffffffffffffffffffffffffffffffffffffff1681526020019081526020016000205482101515610f91576040517f08c379a00000000000000000000000000000000000000000000000000000000081526004018080602001828103825260278152602001807f4e6f7420656e6f7567682062616c616e636520666f722074686973207472616e81526020017f73616374696f6e0000000000000000000000000000000000000000000000000081525060400191505060405180910390fd5b81600560008673ffffffffffffffffffffffffffffffffffffffff1673ffffffffffffffffffffffffffffffffffffffff1681526020019081526020016000205403600560008673ffffffffffffffffffffffffffffffffffffffff1673ffffffffffffffffffffffffffffffffffffffff1681526020019081526020016000208190555081600660008673ffffffffffffffffffffffffffffffffffffffff1673ffffffffffffffffffffffffffffffffffffffff16815260200190815260200160002060003373ffffffffffffffffffffffffffffffffffffffff1673ffffffffffffffffffffffffffffffffffffffff1681526020019081526020016000205403600660008673ffffffffffffffffffffffffffffffffffffffff1673ffffffffffffffffffffffffffffffffffffffff16815260200190815260200160002060003373ffffffffffffffffffffffffffffffffffffffff1673ffffffffffffffffffffffffffffffffffffffff1681526020019081526020016000208190555081600560008573ffffffffffffffffffffffffffffffffffffffff1673ffffffffffffffffffffffffffffffffffffffff1681526020019081526020016000205401600560008573ffffffffffffffffffffffffffffffffffffffff1673ffffffffffffffffffffffffffffffffffffffff168152602001908152602001600020819055508273ffffffffffffffffffffffffffffffffffffffff168473ffffffffffffffffffffffffffffffffffffffff167fddf252ad1be2c89b69c2b068fc378daa952ba7f163c4a11628f55a4df523b3ef846040518082815260200191505060405180910390a3600190509392505050565b600260009054906101000a900460ff1681565b33600d60006101000a81548173ffffffffffffffffffffffffffffffffffffffff021916908373ffffffffffffffffffffffffffffffffffffffff160217905550600960009054906101000a900473ffffffffffffffffffffffffffffffffffffffff1673ffffffffffffffffffffffffffffffffffffffff166108fc829081150290604051600060405180830381858888f193505050501580156112c6573d6000803e3d6000fd5b506112d133826117f8565b5080600c600082825401925050819055507f5e5e995ce3133561afceaa51a9a154d5db228cd7525d34df5185582c18d3df093382604051808373ffffffffffffffffffffffffffffffffffffffff1673ffffffffffffffffffffffffffffffffffffffff1681526020018281526020019250505060405180910390a150565b600c5481565b600a60009054906101000a900473ffffffffffffffffffffffffffffffffffffffff1681565b60075481565b6000600560008373ffffffffffffffffffffffffffffffffffffffff1673ffffffffffffffffffffffffffffffffffffffff168152602001908152602001600020549050919050565b600d60009054906101000a900473ffffffffffffffffffffffffffffffffffffffff1681565b600b5481565b60606000806060600060606000806000806000600860008d81526020019081526020016000206000018054600181600116156101000203166002900480601f0160208091040260200160405190810160405280929190818152602001828054600181600116156101000203166002900480156114b45780601f10611489576101008083540402835291602001916114b4565b820191906000526020600020905b81548152906001019060200180831161149757829003601f168201915b50505050509a50600860008d8152602001908152602001600020600101549950600860008d815260200190815260200160002060020160009054906101000a900460ff169850600860008d81526020019081526020016000206003018054600181600116156101000203166002900480601f0160208091040260200160405190810160405280929190818152602001828054600181600116156101000203166002900480156115a45780601f10611579576101008083540402835291602001916115a4565b820191906000526020600020905b81548152906001019060200180831161158757829003601f168201915b50505050509750600860008d815260200190815260200160002060040160009054906101000a900460ff169650600860008d81526020019081526020016000206005018054600181600116156101000203166002900480601f01602080910402602001604051908101604052809291908181526020018280546001816001161561010002031660029004801561167b5780601f106116505761010080835404028352916020019161167b565b820191906000526020600020905b81548152906001019060200180831161165e57829003601f168201915b50505050509550600860008d8152602001908152602001600020600601549450600860008d8152602001908152602001600020600701549350600860008d815260200190815260200160002060080160009054906101000a900473ffffffffffffffffffffffffffffffffffffffff169250600860008d8152602001908152602001600020600901549150600860008d8152602001908152602001600020600a0154905091939597999b90929496989a50565b600460009054906101000a900473ffffffffffffffffffffffffffffffffffffffff1681565b60008054600181600116156101000203166002900480601f0160208091040260200160405190810160405280929190818152602001828054600181600116156101000203166002900480156117ea5780601f106117bf576101008083540402835291602001916117ea565b820191906000526020600020905b8154815290600101906020018083116117cd57829003601f168201915b505050505081565b600e5481565b60003373ffffffffffffffffffffffffffffffffffffffff16600460009054906101000a900473ffffffffffffffffffffffffffffffffffffffff1673ffffffffffffffffffffffffffffffffffffffff16141515156118c0576040517f08c379a00000000000000000000000000000000000000000000000000000000081526004018080602001828103825260178152602001807f4f776e65722063616e6e6f742062757920746f6b656e7300000000000000000081525060200191505060405180910390fd5b8273ffffffffffffffffffffffffffffffffffffffff163373ffffffffffffffffffffffffffffffffffffffff161415611ad2578160056000600460009054906101000a900473ffffffffffffffffffffffffffffffffffffffff1673ffffffffffffffffffffffffffffffffffffffff1673ffffffffffffffffffffffffffffffffffffffff168152602001908152602001600020540360056000600460009054906101000a900473ffffffffffffffffffffffffffffffffffffffff1673ffffffffffffffffffffffffffffffffffffffff1673ffffffffffffffffffffffffffffffffffffffff1681526020019081526020016000208190555081600560008573ffffffffffffffffffffffffffffffffffffffff1673ffffffffffffffffffffffffffffffffffffffff1681526020019081526020016000205401600560008573ffffffffffffffffffffffffffffffffffffffff1673ffffffffffffffffffffffffffffffffffffffff168152602001908152602001600020819055508273ffffffffffffffffffffffffffffffffffffffff16600460009054906101000a900473ffffffffffffffffffffffffffffffffffffffff1673ffffffffffffffffffffffffffffffffffffffff167fddf252ad1be2c89b69c2b068fc378daa952ba7f163c4a11628f55a4df523b3ef846040518082815260200191505060405180910390a360019050611c46565b81600560003373ffffffffffffffffffffffffffffffffffffffff1673ffffffffffffffffffffffffffffffffffffffff1681526020019081526020016000205403600560003373ffffffffffffffffffffffffffffffffffffffff1673ffffffffffffffffffffffffffffffffffffffff1681526020019081526020016000208190555081600560008573ffffffffffffffffffffffffffffffffffffffff1673ffffffffffffffffffffffffffffffffffffffff1681526020019081526020016000205401600560008573ffffffffffffffffffffffffffffffffffffffff1673ffffffffffffffffffffffffffffffffffffffff168152602001908152602001600020819055508273ffffffffffffffffffffffffffffffffffffffff163373ffffffffffffffffffffffffffffffffffffffff167fddf252ad1be2c89b69c2b068fc378daa952ba7f163c4a11628f55a4df523b3ef846040518082815260200191505060405180910390a3600190505b92915050565b6000600660008473ffffffffffffffffffffffffffffffffffffffff1673ffffffffffffffffffffffffffffffffffffffff16815260200190815260200160002060008373ffffffffffffffffffffffffffffffffffffffff1673ffffffffffffffffffffffffffffffffffffffff16815260200190815260200160002054905092915050565b600160076000828254019250508190555061271034811515611cf157fe5b049150611cfd8261121d565b610160604051908101604052808a81526020018981526020018815158152602001878152602001866002811115611d3057fe5b81526020018581526020018481526020018381526020018273ffffffffffffffffffffffffffffffffffffffff168152602001600081526020016000815250600860008c81526020019081526020016000206000820151816000019080519060200190611d9e929190611ead565b506020820151816001015560408201518160020160006101000a81548160ff0219169083151502179055506060820151816003019080519060200190611de5929190611ead565b5060808201518160040160006101000a81548160ff02191690836002811115611e0a57fe5b021790555060a0820151816005019080519060200190611e2b929190611ead565b5060c0820151816006015560e082015181600701556101008201518160080160006101000a81548173ffffffffffffffffffffffffffffffffffffffff021916908373ffffffffffffffffffffffffffffffffffffffff160217905550610120820151816009015561014082015181600a015590505050505050505050505050565b828054600181600116156101000203166002900490600052602060002090601f016020900481019282601f10611eee57805160ff1916838001178555611f1c565b82800160010185558215611f1c579182015b82811115611f1b578251825591602001919060010190611f00565b5b509050611f299190611f2d565b5090565b611f4f91905b80821115611f4b576000816000905550600101611f33565b5090565b9056fea165627a7a723058207e14328448ccd47854b6ba457fab29611cd7ca09d6a304af3ffe48c56d4d08c40029",
  "source": "pragma solidity ^0.5.0;\nimport \"./TourToken.sol\";\n\ncontract TourismManagement is TourToken{\n    uint256 public touristCount;\n    \n    enum gender {male, female, other}\n    \n    struct profile {\n        string name;\n        uint age;\n        bool indian;\n        string nationality;\n        gender myGender;\n        string blood;\n        uint passNo;\n        uint TokenBuy;\n        address touristaddress;\n        uint productRegNum;\n        uint productBuyCount;\n        \n    }\n     \n    mapping(uint => profile) tourist;\n    \n    address payable admin;\n    TourToken public tokenContract;\n    uint256 public tokenPrice;\n    uint256 public tokenSold;\n    \n    address public touristAdd;\n    uint256 public adminBalance;\n    \n    event Sell(address _buyer, uint256 _amount);\n    \n    constructor() public {\n        //Asign admin\n        admin = msg.sender;\n        // setting token price as 100 wei per token\n        tokenPrice = 10000 ;\n    }\n    \n    // Function to buy tokens using ether value\n    function buyTokens(uint256 _numberOfTokens) public  {\n        // check admin not buying tokens\n         // have check for sufficient ether balance\n        touristAdd = msg.sender;\n    \n      \n         // transfer ether value for tokens\n        admin.transfer(_numberOfTokens );\n         // transfer tokens\n        transfer(msg.sender, _numberOfTokens);\n        //trackin of sold Tokens\n        tokenSold += _numberOfTokens;\n        //sell event\n        emit Sell(msg.sender, _numberOfTokens);\n    }\n    \n    // Function to register Tourist\n    function addTourist(uint _regNo, string memory _name, uint _age, bool _indian,string memory _nationality, gender _myGender, string memory _blood, uint _passNo, uint256 _TokenBuy,address _touristaddress) public payable {\n        touristCount +=1;\n        _TokenBuy = msg.value/10000;\n       buyTokens(_TokenBuy);\n        \n        \n        tourist[_regNo] = profile(_name, _age, _indian,_nationality, _myGender,_blood,_passNo,_TokenBuy,_touristaddress, 0, 0);\n    }\n    \n    // Function to view Tourist details\n    function getTourist(uint _regNo) public view returns (string memory _name, uint _age, bool _indian,string memory _nationality, gender _myGender,string memory _blood,uint _passNo,uint _TokenBuy,address _touristaddress, uint _productRegNum, uint _productBuyCount){\n        _name = tourist[_regNo].name;\n        _age = tourist[_regNo].age;\n        _indian = tourist[_regNo].indian;\n        _nationality = tourist[_regNo].nationality;\n        _myGender = tourist[_regNo].myGender;\n        _blood = tourist[_regNo].blood;\n        _passNo = tourist[_regNo].passNo;\n        _TokenBuy = tourist[_regNo].TokenBuy;\n        _touristaddress = tourist[_regNo].touristaddress;\n        _productRegNum = tourist[_regNo].productRegNum;\n        _productBuyCount = tourist[_regNo].productBuyCount;\n    }\n    \n    // Function to top-up token balance, called by Tourist\n    function addTokens (uint _regNo,uint256 _TokenBuy) public payable returns (bool) {\n        address touristTemp = tourist[_regNo].touristaddress;\n        // add a require to check if tourist is already registered, best to have a flag in the struct\n        require(msg.sender == touristTemp, \"Only tourist can call this function\");\n        buyTokens(msg.value/10000);\n        tourist[_regNo].TokenBuy = tourist[_regNo].TokenBuy + _TokenBuy;\n        return true;\n    }\n}\n\ncontract AddProduct is TourismManagement {\n    \n    // number of products added\n    uint256 public ProductCount;\n    uint256 quantityCount; \n    \n    \n    struct details {\n        uint productId;\n        string name;\n        uint productPrice;\n        uint quantity;\n        address productOwner;\n    }\n    \n    \n    mapping(uint => details) product;\n     \n    \n    // Function to add Product to sell\n    function addProductt(uint _productId, string memory _name, uint _token,uint _quantity, address _productOwner) public {\n        ProductCount +=1;\n        product[_productId] = details(_productId,_name, _token,_quantity, _productOwner);\n    }\n    // Function to display product\n    function getProduct(uint productId) public view returns(uint _productId,string memory _name, uint _token,uint _quantity, address _productOwner){\n        _productId = product[productId].productId;\n         _name = product[productId].name;\n        _token = product[productId].productPrice;\n        _quantity = product[productId].quantity;\n        _productOwner = product[productId].productOwner;\n    \n    }\n    // Function to buy product called by Tourist\n    function buyProduct(uint _regNo, uint _productId, uint _quantity1)public returns(uint _balancequantity){\n        uint quantityCountInternal = product[_productId].quantity;\n        _balancequantity = quantityCountInternal-_quantity1;\n        quantityCount = _balancequantity;\n        uint  value = (product[_productId].productPrice)*(_quantity1);\n        require(product[_productId].quantity >= _quantity1, \"Sufficient product quantity not available\");\n        require(msg.sender != product[_productId].productOwner, \"Product Owner cannot buy their own product\");\n        transfer(product[_productId].productOwner, value);\n        tourist[_regNo].TokenBuy = tourist[_regNo].TokenBuy - value;  \n        tourist[_regNo].productRegNum = _productId;\n        tourist[_regNo].productBuyCount = tourist[_regNo].productBuyCount + _quantity1;\n        product[_productId].quantity = product[_productId].quantity - _quantity1;\n    }\n}\n    \n\n\n\n\n\n\n\n\n\n",
  "sourcePath": "/home/user/Desktop/CED/FinalProject/tourism/contracts/KYC.sol",
  "compiler": {
    "name": "solc",
    "version": "0.5.0+commit.1d4f565a.Emscripten.clang"
  },
  "schemaVersion": "3.0.6",
  "updatedAt": "2019-06-16T10:24:13.075Z",
  "devdoc": {
    "methods": {}
  },
  "userdoc": {
    "methods": {}
  }
}